:0300000002042EC9
:0C042E00787FE4F6D8FD75817F0204752C
:1000460000030405010702062304230823082104EC
:100056002308251015102108FF041504FF081308AE
:10006600FF0416081704FF041704160815062305CF
:100076002505260824042504FF0423082104220458
:100086001708FF042108FF041504FF081308FF04DE
:1000960016081704FF041704160815062305250578
:1000A600260824042504FF04230821042204170833
:1000B600FF04FF0825042404240423082304FF0462
:1000C600150416042104FF04160421042204FF0863
:1000D60025042404240423082304FF0431083104DE
:1000E6003108FF08FF0825042404240423082304F8
:1000F600FF04150416042104FF0416042104220437
:10010600FF082508FF042408FF042308FF08FF1042
:1001160000002108241024082408240823082209A2
:1001260021080000230423082304FF0421042308D4
:1001360025100000F88CF95BFA15FA67FB04FB90B2
:10014600FC0CFC44FCACFD09FD34FD82FDC8FE063A
:0E015600FE22FE56FE6EFE9AFEC1FEE4FF0380
:10053F000132000133010D4E7338776E00003976AA
:10054F00796D6D000016363F065B4F666D7D077F38
:10055F006F777C395E797144504042600020205E95
:10056F00000000000A0B1314010000000A0B131403
:10057F00020000000A0B1212030000000A0B1011F8
:10058F0008210000120A0B12000001340A014D0A63
:10059F00015B00012C00012901013004012F000132
:0705AF003100013500C1011C
:0D000E00759A1075D7E075D6FE438E14224A
:10061F00755C01E4F55DE55C75F008A4245E255D6D
:10062F00F8E4F6055DE55DB404EC055CE55CB40447
:10063F00E2755C01E55C75F008A42462F8A64DE54F
:10064F004D6401FFE55C75F008A42463F8A607E587
:10065F005C75F008A4245EF8A65C055CE55CB40448
:10066F00D3E54DB40B057530058003753004757EE9
:05067F0002757F02225C
:1009C700854D24E54D6401F525855B22852C28227C
:10068400E4F5957596FFF5937594FF75B210C2A3C2
:10069400759D80F5BD75BC8FF597C202757E027598
:1006A4007F02F532F52BF531F535F55BF55BF52F6A
:1006B400754D0AF52AF54CF589D2A9758CFC758A15
:1006C40017D28C758DD8758BEFD2ABC28ED2AFC2D8
:1006D400B743BA0112000ED20043AF0143B501F58E
:0206E4002A22C8
:080A26007F367EC7DEFEDFFC17
:010A2E0022A5
:0E09D70000007F027E437DB7DDFEDEFCDFFA0E
:0109E50022EF
:0C094A00D202120956C2021209D7D202D2
:0E09560000007F037E1A7DDFDDFEDEFCDFFA8F
:010964002270
:0E09E60000007F057E347DC3DDFEDEFCDFFAFF
:0109F40022E0
:0E09F50000007F557E0C7D9BDDFEDEFCDFFAF0
:010A030022D0
:10092C00D3EF9400EE940040147D7C7C00ED1D70A0
:0D093C00011CED4C70F7EF1F70E61E80E30C
:01094900228B
:1009A40075BCEF00000000E5BC30E4FB53BCEFAFC6
:0109B400BD85
:0109B500221F
:10090A001209A4EFF46018120A261209A4EFF4607F
:10091A000E5307E07805EF08800103D8FDFF227F18
:01092A0007C5
:01092B0022A9
:10097E00E534B40B03758CFED2021209E6C2027581
:03098E008CFC22BC
:1009B600E534B40B03758CFE12094AC202758CFC31
:0109C600220E
:0C0A0400758CFF12094AC202758CFC229E
:0B0A1000D202120A26C202758CFC22E2
:10096500D2B7E54DC43333335480452AF59B200077
:09097500FDD200C2B7E4F52A220C
:1008E700EFC4540FFEEF540FFFBE0104E4FE800C6B
:1008F700BE02047E0E8005BE03027E1CEF1425E0B7
:020907002EFFC1
:0109090022CB
:0604BA007BFF7A00794E81
:0804C0008F108B118A128913C1
:1004C800E4F5161205B7F514E514606AE531600421
:1004D800E5356062AB11AA12A913851682758300EF
:1004E8001205D0FBF514B4FF0F051605167F647EC0
:1004F8000012092CC28E802CAF031208E7EF90017E
:100508003A93F52DEFA393F52E0516852D8D852E9F
:100518008BAB11AA12A9138516827583001205D018
:10052800F5150516D28EE5158510F0A4FFAEF0126C
:06053800092CC28E809226
:01053E00229A
:1007F600753301D2A3E4F55DF55CE533B4800EE50F
:100806005D70047F0180027F008F5D8011E533B447
:10081600010CE55D70047F0180027F008F5DE55D60
:100826006008E53325E0F5338006E533C313F53379
:100836008533807FC87E0012092C055CE55CC39475
:060846002840B7C2A32206
:1002F600755C01E55C75F008A4245FF8E6FF6029EB
:10030600E55C75F008A42460F8E6FEEFB5061AE58C
:100316005C75F008A42461F8E6FEE55C75F008A4B7
:10032600245FF8E6FFB50601227466255CF8E6FF51
:10033600601D746E255CF8E6FEEFB5061274762530
:100346005CF8E6FE7466255CF8E6FFB50601220554
:100356005CE55C6404709CE5676008B57005B5797A
:1003660002FF22E569600BB57008E570B57703AF4B
:100376006922755C01755D01E55C75F008A4245E73
:10038600255DF8E67002FF22055DE55DB404E9052A
:090396005CE55CB404DF7F102279
:10079E00E4F580857F29E532B57F13E52FD39414D8
:1007AE00400AE52FB43207E4F52F80020532E53218
:1007BE00B5301AE5316016E57E75F008A4245E2585
:1007CE0032F8E62436F8E64480F5808012E57E7530
:1007DE00F008A4245E2532F8E62436F8E6F580E526
:0807EE003290004693F5A022B1
:10099100E4F5808532A074212532F8E62436F8E6A4
:0309A100F58022BC
:1006E6008B178A188919E52FD394144039E4F52F0E
:1006F6001205B7F55DE4F55C855C82758300A3ABF6
:1007060017AA18A9191205D0855C827583001205EF
:10071600FD055CE55CB40CE0AB17AA18A9199000BE
:100726000CE55D1205FDE4F5808532A0AB17AA182D
:0D073600A919853282F5831205D0F58022C5
:10001E007FBE1204BAE53160FC120A26120A04757C
:10002E008C50758A377FA07E0F12092C758CFC754B
:05003E008A1702061FF5
:10074300E54C64036054E52B7BFFB54D0D7A0179CD
:100753002A7F641204C0055B800B7A0179187F64D9
:100763001204C0052C1209C7758C50758A371209FB
:10077300F5758CFC758A17054C75340AE4F52BF571
:1007830031F53512061FE54C6403600302001E7F3A
:0B079300C81204BA753101753501224F
:10088F001209B6E5357028E57E75F008A4245E25BB
:10089F007FF8A6346334011202F68F35E535600315
:1008AF00F52B22E534B54D04753004227530052241
:10039F0012090AEF64076071AC07EF64076005127A
:1003AF00090A80F6EC24FE601714601E14603214E4
:1003BF00603924047040E57F6403603A057F803321
:1003CF00E57E64036030057E8029E5357050E57E5B
:1003DF0075F008A4245E257FF8E6701A12088F8046
:1003EF0015E57F6401600F157F8008E57E6401606D
:1003FF0005157E12097EEC04FF7401A80708800220
:10040F00C333D8FCF52A120965E535600EE5316076
:0E041F000AE54CC3940350031207431209E68A
:01042D0022AC
:10084C00634D01E4F55CE55C75F008A42462F8A640
:10085C004DE54D6401FFE55C75F008A42463F8A632
:10086C0007055CE55CB404DE755C01746E255CF810
:10087C00A64D055CE55CB404F2756E1575721575C4
:03088C00731522BF
:10016400D201E52AC41313135401FFE54D54016F62
:100174007008E531600122634D01532A7FE52A703E
:100184000302022D30E003753101E52A30E13FE43A
:10019400F55CE55C75F008A42462F8A64DE54D64B1
:1001A40001FFE55C75F008A42463F8A607055CE587
:1001B4005CB404DE755C01746E255CF8A64D055CC8
:1001C400E55CB404F2756E15757215757315E52A40
:1001D4001313543FF52A24FE601A24FE602024FCE5
:1001E400602F24F86035240F703CE57F640360368B
:1001F400057F802FE57E6403602C057E8025E57EE7
:1002040075F008A4245E257FF8E6701A12088F8022
:1002140015E57F6401600F157F8008E57E64016049
:0A02240005157E12097EE4F52A227A
:030043000208BFF1
:1008BF00C0E0C0F0C0D075D008E59A30E009859B44
:1008CF002A539AFE120164E59A30E105C200539A49
:0808DF00FDD0D0D0F0D0E032D2
:03000B0002022EC0
:10022E00C0E0C0F0C083C082C0D075D000C000C096
:10023E0001C002C003C006C00720B21AE531701615
:10024E00E5357012120A1020B20C30B2FD75310174
:10025E00752A0112096520B323E54C701FE5317034
:10026E001BE5357017120A26120A1020B30E30B392
:10027E00FD12084CD201752A021209650532E532CB
:10028E00B40805753200052F20B311E5317008E56D
:10029E00357004E54C60051209918025E531700B2F
:1002AE00E5357007E54C7003300108E531600FE568
:1002BE0035600B7B007A00794E1206E6800312073A
:1002CE009E300208E5357004B2B48005208E02C25D
:1002DE00B4D007D006D003D002D001D000D0D0D0F9
:0802EE0082D083D0F0D0E03291
:03001B00020003DD
:03000300B2B43262
:0B0A1B0012068412001E12039F80FBD5
:10043A00020A1BE493A3F8E493A34003F68001F2B3
:10044A0008DFF48029E493A3F85407240CC8C333C3
:10045A00C4540F4420C8834004F456800146F6DF92
:10046A00E4800B010204081020408090053FE47EDE
:10047A00019360BCA3FF543F30E509541FFEE49387
:10048A00A360010ECF54C025E060A840B8E493A34E
:10049A00FAE493A3F8E493A3C8C582C8CAC583CA79
:1004AA00F0A3C8C582C8CAC583CADFE9DEE780BE31
:0105B6000044
:1005B700BB010689828A83E0225002E722BBFE0242
:0905C700E32289828A83E4932275
:1005D000BB010CE58229F582E5833AF583E02250E0
:1005E00006E92582F8E622BBFE06E92582F8E2222A
:0D05F000E58229F582E5833AF583E4932244
:1005FD00F8BB010DE58229F582E5833AF583E8F034
:10060D00225006E92582C8F622BBFE05E92582C8DF
:02061D00F222C7
:00000001FF
